:020000040800F2
:1000000000280020990E0008890D00088F0D0008B7
:10001000950D00089B0D0008A10D000800000000D0
:10002000000000000000000000000000A70D000814
:10003000B30D000800000000BF0D0008CB0D000844
:10004000E10E0008E10E0008E10E0008E10E0008D4
:10005000E10E0008E10E0008E10E0008E10E0008C4
:10006000E10E0008E10E0008E10E0008E10E0008B4
:10007000E10E0008E10E0008E10E0008E10E0008A4
:10008000E10E0008E10E0008E10E0008E10E000894
:10009000E10E0008E10E0008E10E0008E10E000884
:1000A000E10E0008E10E0008E10E0008E10E000874
:1000B000D90D0008E10E000800000000E10E000864
:1000C000E10E00080000000000000000E10E000842
:1000D00000000000E10E0008E10E00080000000032
:1000E000E10E0008E10E0008E10E0008000000002B
:1000F0000000000000000000000000000000000000
:0C01000000000000000000005FF808F1A3
:10010C0010B5054C237833B9044B13B10448AFF345
:10011C0000800123237010BD24000020000000008B
:10012C00FC24000808B5034B1BB103490348AFF38B
:10013C00008008BD0000000028000020FC240008FE
:10014C0080B500AF044B1B68044A12681146184670
:10015C0000F05AFA00BF80BD40000020440000208F
:10016C0080B485B000AFF860B9607A60064AFB686D
:10017C001360064ABB681360054A7B68136000BFB6
:10018C001437BD4680BC704740000020440000205E
:10019C004800002080B400AF024B1B681846BD46D7
:1001AC0080BC70474000002080B400AF024B1B683D
:1001BC001846BD4680BC70474400002080B400AF98
:1001CC00024B1B681846BD4680BC70474800002097
:1001DC0080B582B000AF78607B68092B00F280811B
:1001EC0001A252F823F000BF1D02000865020008AE
:1001FC00AD020008F50200083D0300088503000865
:10020C00CD030008150400085D040008A5040008CF
:10021C0000220121C64801F049F900220221C448FC
:10022C0001F044F900220421C14801F03FF90022F9
:10023C000821BF4801F03AF900221021BC4801F016
:10024C0035F900222021BA4801F030F90122402171
:10025C00B74801F02BF967E101220121B44801F004
:10026C0025F900220221B24801F020F900220421D4
:10027C00AF4801F01BF901220821AD4801F016F935
:10028C0001221021AA4801F011F901222021A848CD
:10029C0001F00CF901224021A54801F007F943E1D6
:1002AC0000220121A24801F001F900220221A048FC
:1002BC0001F0FCF8012204219D4801F0F7F800221E
:1002CC0008219B4801F0F2F800221021984801F017
:1002DC00EDF801222021964801F0E8F80022402197
:1002EC00934801F0E3F81FE100220121904801F04E
:1002FC00DDF8002202218E4801F0D8F800220421FA
:10030C008B4801F0D3F800220821894801F0CEF87F
:10031C0001221021864801F0C9F8012220218448CD
:10032C0001F0C4F800224021814801F0BFF8FBE045
:10033C00012201217E4801F0B9F8002202217C48FB
:10034C0001F0B4F800220421794801F0AFF8012241
:10035C000821774801F0AAF801221021744801F015
:10036C00A5F800222021724801F0A0F800224021BB
:10037C006F4801F09BF8D7E0002201216C4801F096
:10038C0095F8012202216A4801F090F8002204211C
:10039C00674801F08BF800220821654801F086F8C7
:1003AC0001221021624801F081F8002220216048CE
:1003BC0001F07CF8002240215D4801F077F8B3E0B1
:1003CC00002201215A4801F071F8012202215848FB
:1003DC0001F06CF800220421554801F067F8002266
:1003EC000821534801F062F800221021504801F016
:1003FC005DF8002220214E4801F058F800224021DF
:10040C004B4801F053F88FE000220121484801F0DD
:10041C004DF800220221464801F048F80022042140
:10042C00434801F043F801220821414801F03EF80D
:10043C00012210213E4801F039F8012220213C48CC
:10044C0001F034F801224021394801F02FF86BE01B
:10045C0000220121364801F029F8002202213448FB
:10046C0001F024F800220421314801F01FF8002289
:10047C0008212F4801F01AF8002210212C4801F015
:10048C0015F8002220212A4801F010F80022402102
:10049C00274801F00BF847E000220121244801F025
:1004AC0005F800220221224801F000F80022042164
:1004BC001F4800F0FBFF002208211D4800F0F6FF4A
:1004CC00012210211A4800F0F1FF002220211848C7
:1004DC0000F0ECFF00224021154800F0E7FF23E07C
:1004EC0001220121124800F0E1FF012202211048F3
:1004FC0000F0DCFF012204210D4800F0D7FF01229F
:10050C0008210B4800F0D2FF01221021084800F00E
:10051C00CDFF01222021064800F0C8FF0122402116
:10052C00034800F0C3FF00BF00BF0837BD4680BDC5
:10053C00000C014080B582B000AF78607B68032B63
:10054C0024D801A252F823F06505000871050008B3
:10055C007D0500088B05000800224021194800F099
:10056C00A5FF2AE000228021164800F09FFF24E01E
:10057C0000224FF48071134800F098FF1DE0002218
:10058C004FF400710F4800F091FF16E0012240215A
:10059C000C4800F08BFF012280210A4800F086FFF6
:1005AC0001224FF48071074800F080FF01224FF4C4
:1005BC000071044800F07AFF00BF00BF0837BD4649
:1005CC0080BD00BF0008014080B582B000AF7860EC
:1005DC007B68032B11DC7B68002B0EDB4FF0FF30AC
:1005EC00FFF7A8FF7868FFF7A5FF064A7B6852F86B
:1005FC0023301846FFF7ECFD00E000BF0837BD467E
:10060C0080BD00BF0000002080B483B000AF7860D4
:10061C0039607B68184A82FB03129210DB17D31ADD
:10062C00164A13607968144B83FB01239A10CB177D
:10063C00D21A13469B0013445B00CA1A0F4B5A6024
:10064C003B680D4A82FB03129210DB17D31A0B4A3C
:10065C0093603968084B83FB01239A10CB17D21A8D
:10066C0013469B0013445B00CA1A044BDA6000BFAC
:10067C000C37BD4680BC704767666666000000207C
:10068C0080B485B000AF78600023FB81364A7B686C
:10069C0013441B78DB01DBB25BB2002B03DBFB8961
:1006AC0043F48073FB81304A7B6813441B789B01B5
:1006BC00DBB25BB2002B03DBFB8943F40073FB81E1
:1006CC00294A7B6813441B785B01DBB25BB2002BBD
:1006DC0003DBFB8943F48063FB81234A7B6813446F
:1006EC001B781B01DBB25BB2002B03DBFB8943F4F1
:1006FC000063FB811C4A7B6813441B78DB00DBB274
:10070C005BB2002B03DBFB8943F48053FB81164A5D
:10071C007B6813441B789B00DBB25BB2002B03DBC2
:10072C00FB8943F40053FB810F4A7B6813441B780D
:10073C005B00DBB25BB2002B03DBFB8943F4804331
:10074C00FB81094A7B6813441B785BB2002B05DBE9
:10075C00FB896FEA43436FEA5343FB81FB891846DD
:10076C001437BD4680BC70471000002080B584B0A3
:10077C0000AF78607B68072B00F2A28001A252F8D0
:10078C0023F000BFB1070008D3070008F5070008E5
:10079C00190800083D0800086108000885080008D1
:1007AC00A9080008002204214E4800F07FFE00201A
:1007BC00FFF766FF0346FB81FB89002219464A4876
:1007CC0000F074FE89E000220821464800F06EFE1D
:1007DC000120FFF755FF0346FB81FB8900221946D8
:1007EC00414800F063FE78E000224FF480613D4800
:1007FC0000F05CFE0220FFF743FF0346FB81FB8900
:10080C0000221946384800F051FE66E000224FF4F1
:10081C000061344800F04AFE0320FFF731FF034625
:10082C00FB81FB89002219462F4800F03FFE54E063
:10083C0000224FF480512B4800F038FE0420FFF7C3
:10084C001FFF0346FB81FB8900221946264800F056
:10085C002DFE42E000224FF40051224800F026FE0B
:10086C000520FFF70DFF0346FB81FB89002219468B
:10087C001D4800F01BFE30E000224FF48041194867
:10088C0000F014FE0620FFF7FBFE0346FB81FB89FC
:10089C0000221946144800F009FE1EE000224FF415
:1008AC000041104800F002FE0720FFF7E9FE034666
:1008BC00FB81FB89002219460B4800F0F7FD0CE088
:1008CC0001224FF60C41074800F0F0FD01224FF4D5
:1008DC007F41054800F0EAFD00BF00BF1037BD4660
:1008EC0080BD00BF00080140000C014080B400AF87
:1008FC00024B1B681846BD4680BC70474C0000205C
:10090C0080B400AF074B1B680133064A1360054BDC
:10091C001B68072B02DD034B00221A6000BFBD468B
:10092C0080BC70474C00002080B483B000AF0346FD
:10093C00FB71FB79412B18D10F4BFF221A700E4B18
:10094C0003225A700C4B01229A700B4BCC22DA709A
:10095C00094BCC221A71084B01225A71064B032207
:10096C009A71054BFF22DA7100E000BF00BF0C3713
:10097C00BD4680BC704700BF1000002080B584B01D
:10098C0000AF00F0A9FA00F0ABF800F031F900F07C
:10099C00E3F8514801F0E8F9002220214F4800F01B
:1009AC0085FD002210214D4800F080FD01224021E0
:1009BC004A4800F07BFD01228021484800F076FD7A
:1009CC004FF0FF30FFF704FC4FF0FF30FFF7B2FDA4
:1009DC004120FFF7A9FF0021022000F007FA0121B6
:1009EC00022000F003FA0221022000F0FFF903219B
:1009FC00022000F0FBF90023FB60322208210F20BB
:100A0C00FFF7AEFB002000F031FA0346002B0ED0AE
:100A1C00FB68032B01DD0023FB60F868FFF7D4FDB6
:100A2C00FB680133FB600021192000F0DFF9012085
:100A3C0000F01CFA0346002B07D01021274800F0C9
:100A4C004DFD0121642000F0D1F9022000F00EFAD6
:100A5C000346002B29D0FFF7B1FBB860FFF7A4FBCE
:100A6C007860FFF797FB3860BB680133BB60BB68ED
:100A7C003B2B04DD0023BB607B6801337B607B6810
:100A8C003B2B04DD00237B603B6801333B603B6800
:100A9C00172B01DD00233B60BA6879683868FFF7D3
:100AAC004FFB0221642000F0A1F9032000F0DEF9D5
:100ABC000346002BA6D04FF0FF30FFF757FEFFF791
:100ACC0015FF03461846FFF751FEFFF719FF0321E8
:100ADC00322000F08BF995E77800002000080140E7
:100AEC0080B590B000AF07F11803282200211846FA
:100AFC0001F0F6FC3B1D00221A605A609A60DA6025
:100B0C001A610223BB610123BB621023FB62002329
:100B1C007B6307F11803184600F0FAFC0346002B20
:100B2C0001D000F0CFF80F237B600023BB600023C3
:100B3C00FB6000233B6100237B613B1D00211846B9
:100B4C0000F066FF0346002B01D000F0BBF800BF9D
:100B5C004037BD4680BD000080B586B000AF07F1C0
:100B6C00080300221A605A609A60DA603B46002241
:100B7C001A605A601D4B4FF080421A601B4B41F6B5
:100B8C003F725A60194B00229A60184B0922DA60A6
:100B9C00164B00221A61154B00229A61134801F082
:100BAC0093F80346002B01D000F08CF84FF48053DF
:100BBC00BB6007F1080319460C4801F029FA0346FB
:100BCC00002B01D000F07EF800233B6000237B60FB
:100BDC003B461946054801F0F5FB0346002B01D0B6
:100BEC0000F070F800BF1837BD4680BD78000020BB
:100BFC0080B586B000AF07F1080300221A605A6076
:100C0C009A60DA60224B9B69214A43F0040393619A
:100C1C001F4B9B6903F004037B607B681C4B9B6937
:100C2C001B4A43F008039361194B9B6903F00803BB
:100C3C003B603B6800224FF6FC71164800F036FC16
:100C4C0000224FF67F71144800F030FC4FF6FC7315
:100C5C00BB600123FB6000233B6102237B6107F136
:100C6C00080319460B4800F0A7FA4FF67F73BB60D8
:100C7C000123FB6000233B6102237B6107F1080326
:100C8C001946054800F098FA00BF1837BD4680BDDC
:100C9C000010024000080140000C014080B582B0F9
:100CAC0000AF7860002000F0B9F8012000F0B6F831
:100CBC00022000F0B3F8032000F0B0F800BF0837B2
:100CCC00BD4680BD80B400AF72B600BFFEE7000029
:100CDC0080B485B000AF154B9B69144A43F00103F7
:100CEC009361124B9B6903F00103BB60BB680F4B14
:100CFC00DB690E4A43F08053D3610C4BDB6903F084
:100D0C0080537B607B680A4B5B68FB60FB6823F05D
:100D1C00E063FB60FB6843F08063FB60044AFB68A4
:100D2C00536000BF1437BD4680BC704700100240B2
:100D3C000000014080B584B000AF78607B681B6810
:100D4C00B3F1804F13D10C4BDB690B4A43F0010319
:100D5C00D361094BDB6903F00103FB60FB680022E4
:100D6C0000211C2000F0F1F91C2000F00AFA00BF51
:100D7C001037BD4680BD00BF0010024080B400AFEC
:100D8C00FEE780B400AFFEE780B400AFFEE780B4AE
:100D9C0000AFFEE780B400AFFEE780B400AF00BF49
:100DAC00BD4680BC704780B400AF00BFBD4680BC60
:100DBC00704780B400AF00BFBD4680BC704780B5A3
:100DCC0000AF00F0CFF800BF80BD000080B500AFD1
:100DDC00024801F015F800BF80BD00BF780000206C
:100DEC0080B400AF00BFBD4680BC704780B483B0F8
:100DFC0000AF7860396007493B687A6841F8232076
:100E0C00054A3B68002142F8231000BF0C37BD4651
:100E1C0080BC7047640000205000002080B483B078
:100E2C0000AF78600F4A7B6852F82330002B13DD3B
:100E3C000C4A7B6852F823305A1E0A497B6841F8E9
:100E4C002320084A7B6852F82330002B04DC064A26
:100E5C007B68012142F8231000BF0C37BD4680BCD3
:100E6C00704700BF640000205000002080B483B0A5
:100E7C0000AF7860044A7B6852F8233018460C3770
:100E8C00BD4680BC704700BF50000020FFF7A8FF94
:100E9C000B480C490C4A002302E0D458C4500433CC
:100EAC00C4188C42F9D3094A094C002301E01360A1
:100EBC000432A242FBD301F0EFFAFFF75FFD70475B
:100ECC000000002024000020402500082400002001
:100EDC00C4000020FEE7000080B500AF084B1B6883
:100EEC00074A43F010031360032000F023F90F208E
:100EFC0000F008F8FFF7ECFE0023184680BD00BF99
:100F0C000020024080B582B000AF7860124B1A68A6
:100F1C00124B1B7819464FF47A73B3FBF1F3B2FB07
:100F2C00F3F3184600F03BF90346002B01D00123E4
:100F3C000EE07B680F2B0AD8002279684FF0FF3047
:100F4C0000F003F9064A7B681360002300E00123DC
:100F5C0018460837BD4680BD180000202000002030
:100F6C001C00002080B400AF054B1B781A46054BC3
:100F7C001B681344034A136000BFBD4680BC704716
:100F8C0020000020C000002080B400AF024B1B6882
:100F9C001846BD4680BC7047C000002080B485B0A8
:100FAC0000AF78607B6803F00703FB600C4BDB68D9
:100FBC00BB60BA684FF6FF031340BB60FB681A02B4
:100FCC00BB68134343F0BF6343F40033BB60044A74
:100FDC00BB68D36000BF1437BD4680BC704700BFF0
:100FEC0000ED00E080B400AF044BDB681B0A03F09B
:100FFC0007031846BD4680BC704700BF00ED00E0FB
:10100C0080B483B000AF0346FB7197F90730002B17
:10101C000BDBFB7903F01F02064997F907305B09DC
:10102C00012000FA02F241F8232000BF0C37BD4624
:10103C0080BC704700E100E080B483B000AF034691
:10104C003960FB7197F90730002B0ADB3B68DAB289
:10105C000C4997F907301201D2B20B4483F80023E4
:10106C000AE03B68DAB20849FB7903F00F03043B52
:10107C001201D2B20B441A7600BF0C37BD4680BCAD
:10108C00704700BF00E100E000ED00E080B489B0E3
:10109C0000AFF860B9607A60FB6803F00703FB618E
:1010AC00FB69C3F10703042B28BF0423BB61FB6955
:1010BC000433062B02D9FB69033B00E000237B6160
:1010CC004FF0FF32BB6902FA03F3DA43BB681A40F4
:1010DC007B699A404FF0FF317B6901FA03F3D943E6
:1010EC007B680B40134318462437BD4680BC7047C1
:1010FC0080B582B000AF78607B68013BB3F1807F34
:10110C0001D301230FE00A4A7B68013B53600F2196
:10111C004FF0FF30FFF790FF054B00229A60044B15
:10112C0007221A60002318460837BD4680BD00BF51
:10113C0010E000E080B582B000AF78607868FFF70F
:10114C002DFF00BF0837BD4680BD80B586B000AF0F
:10115C000346B9607A60FB7300237B61FFF742FFA3
:10116C0078617A68B9687869FFF790FF024697F959
:10117C000F3011461846FFF75FFF00BF1837BD460A
:10118C0080BD80B582B000AF0346FB7197F9073084
:10119C001846FFF735FF00BF0837BD4680BD80B548
:1011AC0082B000AF78607868FFF7A2FF034618465C
:1011BC000837BD4680BD000080B48BB000AF7860AE
:1011CC00396000237B6200233B6248E101227B6A89
:1011DC0002FA03F3FB613B681B68FA691340BB61BD
:1011EC00BA69FB699A4240F037813B685B68A34A55
:1011FC0093425ED0A14A934275D8A14A934258D0EB
:10120C009F4A93426FD89F4A934252D09D4A934231
:10121C0069D89D4A93424CD09B4A934263D89B4ACF
:10122C00934246D0994A93425DD8122B2AD8122B5E
:10123C0059D801A252F823F0BF12000899120008E5
:10124C00AB120008ED120008F3120008F3120008AC
:10125C00F3120008F3120008F3120008F31200084E
:10126C00F3120008F3120008F3120008F31200083E
:10127C00F3120008F3120008F3120008A112000880
:10128C00B5120008824A934213D02CE03B68DB680D
:10129C003B6229E03B68DB6804333B6224E03B683B
:1012AC00DB6808333B621FE03B68DB680C333B6256
:1012BC001AE03B689B68002B02D104233B6213E0CD
:1012CC003B689B68012B05D108233B627B68FA695C
:1012DC001A6109E008233B627B68FA695A6103E0F2
:1012EC0000233B6200E000BFBB69FF2B01D87B6889
:1012FC0001E07B6804337B61BB69FF2B02D87B6AFE
:10130C009B0002E07B6A083B9B003B617B691A688F
:10131C000F213B6901FA03F3DB431A40396A3B693D
:10132C0001FA03F31A437B691A603B685B6803F0AC
:10133C008053002B00F09080564B9B69554A43F02C
:10134C0001039361534B9B6903F00103BB60BB68C2
:10135C00514A7B6A9B08023352F82330FB607B6A4C
:10136C0003F003039B000F2202FA03F3DB43FA683A
:10137C001340FB607B68494A93420DD07B68484A16
:10138C00934207D07B68474A934201D1022304E081
:10139C00032302E0012300E000237A6A02F0030237
:1013AC0092009340FA681343FB603B497B6A9B08AD
:1013BC000233FA6841F823203B685B6803F480131E
:1013CC00002B06D0384B9A683749BB6913438B60A6
:1013DC0006E0354B9A68BB69DB43334913408B609D
:1013EC003B685B6803F40013002B06D02E4BDA68C5
:1013FC002D49BB691343CB6006E02B4BDA68BB6904
:10140C00DB4329491340CB603B685B6803F4003332
:10141C00002B06D0244B5A682349BB6913434B60FD
:10142C0006E0214B5A68BB69DB431F4913404B60F4
:10143C003B685B6803F48033002B06D01A4B1A68A8
:10144C001949BB6913430B6006E0174B1A68BB695B
:10145C00DB43154913400B607B6A01337B623B68AD
:10146C001A687B6A22FA03F3002B7FF4AFAE00BF3D
:10147C0000BF2C37BD4680BC704700BF0000321047
:10148C00000031100000221000002110000012108A
:10149C000000111000100240000001400008014043
:1014AC00000C0140001001400004014080B483B0E6
:1014BC0000AF78600B467B8013467B707B78002BEB
:1014CC0003D07A887B681A6103E07B881A047B68F6
:1014DC001A6100BF0C37BD4680BC704780B485B024
:1014EC0000AF78600B467B807B68DB68FB607A889A
:1014FC00FB6813401A04FB68D9437B880B401A43E2
:10150C007B681A6100BF1437BD4680BC7047000071
:10151C0080B586B000AF78607B68002B01D10123C9
:10152C006CE27B681B6803F00103002B00F08780E2
:10153C00924B5B6803F00C03042B0CD08F4B5B6855
:10154C0003F00C03082B12D18C4B5B6803F4803333
:10155C00B3F5803F0BD1894B1B6803F40033002B90
:10156C006CD07B685B68002B68D1012346E27B68FA
:10157C005B68B3F5803F06D1804B1B687F4A43F410
:10158C00803313602EE07B685B68002B0CD17B4BA7
:10159C001B687A4A23F480331360784B1B68774AB4
:1015AC0023F4802313601DE07B685B68B3F5A02FE8
:1015BC000CD1724B1B68714A43F4802313606F4B40
:1015CC001B686E4A43F4803313600BE06B4B1B6853
:1015DC006A4A23F480331360684B1B68674A23F410
:1015EC00802313607B685B68002B13D0FFF7CCFC67
:1015FC00386108E0FFF7C8FC02463B69D31A642B3C
:10160C0001D90323FAE15D4B1B6803F40033002B73
:10161C00F0D014E0FFF7B8FC386108E0FFF7B4FC39
:10162C0002463B69D31A642B01D90323E6E1534BE1
:10163C001B6803F40033002BF0D100E000BF7B6883
:10164C001B6803F00203002B63D04C4B5B6803F068
:10165C000C03002B0BD0494B5B6803F00C03082BDD
:10166C001CD1464B5B6803F48033002B16D1434BE3
:10167C001B6803F00203002B05D07B681B69012B50
:10168C0001D00123BAE13D4B1B6823F0F8027B68C3
:10169C005B69DB00394913430B603AE07B681B69DB
:1016AC00002B20D0364B01221A60FFF76DFC3861FD
:1016BC0008E0FFF769FC02463B69D31A022B01D9FB
:1016CC0003239BE12D4B1B6803F00203002BF0D08E
:1016DC002A4B1B6823F0F8027B685B69DB00274907
:1016EC0013430B6015E0264B00221A60FFF74CFCED
:1016FC00386108E0FFF748FC02463B69D31A022B1D
:10170C0001D903237AE11D4B1B6803F00203002B64
:10171C00F0D17B681B6803F00803002B3AD07B6880
:10172C009B69002B19D0174B01221A60FFF72CFC78
:10173C00386108E0FFF728FC02463B69D31A022BFC
:10174C0001D903235AE10D4B5B6A03F00203002B12
:10175C00F0D0012000F09AFA1CE00A4B00221A602B
:10176C00FFF712FC38610FE0FFF70EFC02463B69F5
:10177C00D31A022B08D9032340E100BF001002400A
:10178C0000004242800442429E4B5B6A03F002031B
:10179C00002BE9D17B681B6803F00403002B00F0DD
:1017AC00A6800023FB75974BDB6903F08053002B5D
:1017BC000DD1944BDB69934A43F08053D361914B29
:1017CC00DB6903F08053BB60BB680123FB758E4B58
:1017DC001B6803F48073002B18D18B4B1B688A4A4F
:1017EC0043F480731360FFF7CFFB386108E0FFF719
:1017FC00CBFB02463B69D31A642B01D90323FDE0D2
:10180C00814B1B6803F48073002BF0D07B68DB6882
:10181C00012B06D17B4B1B6A7A4A43F001031362FE
:10182C002DE07B68DB68002B0CD1764B1B6A754A6C
:10183C0023F001031362734B1B6A724A23F00403F7
:10184C0013621CE07B68DB68052B0CD16D4B1B6AAB
:10185C006C4A43F0040313626A4B1B6A694A43F0F7
:10186C00010313620BE0674B1B6A664A23F001030A
:10187C001362644B1B6A634A23F0040313627B6894
:10188C00DB68002B15D0FFF77FFB38610AE0FFF710
:10189C007BFB02463B69D31A41F28832934201D951
:1018AC000323ABE0574B1B6A03F00203002BEED073
:1018BC0014E0FFF769FB38610AE0FFF765FB0246AD
:1018CC003B69D31A41F28832934201D9032395E044
:1018DC004C4B1B6A03F00203002BEED1FB7D012B5A
:1018EC0005D1484BDB69474A23F08053D3617B68B1
:1018FC00DB69002B00F08180424B5B6803F00C032A
:10190C00082B61D07B68DB69022B46D13F4B002250
:10191C001A60FFF739FB386108E0FFF735FB024628
:10192C003B69D31A022B01D9032367E0354B1B68A3
:10193C0003F00073002BF0D17B681B6AB3F5803F7A
:10194C0008D1304B5B6823F400327B689B682D49CF
:10195C0013434B602B4B5B6823F474127B68196A3E
:10196C007B685B6A0B43274913434B60274B01226F
:10197C001A60FFF709FB386108E0FFF705FB024628
:10198C003B69D31A022B01D9032337E01D4B1B688B
:10199C0003F00073002BF0D02FE01C4B00221A60D8
:1019AC00FFF7F2FA386108E0FFF7EEFA02463B69FE
:1019BC00D31A022B01D9032320E0124B1B6803F02E
:1019CC000073002BF0D118E07B68DB69012B01D18F
:1019DC00012313E00B4B5B68FB60FB6803F4803264
:1019EC007B681B6A9A4206D1FB6803F470127B6811
:1019FC005B6A9A4201D0012300E000231846183795
:101A0C00BD4680BD001002400070004060004242A4
:101A1C0080B584B000AF786039607B68002B01D151
:101A2C000123D0E06A4B1B6803F007033A689A4223
:101A3C0010D9674B1B6823F0070265493B681343B9
:101A4C000B60634B1B6803F007033A689A4201D0A2
:101A5C000123B8E07B681B6803F00203002B20D045
:101A6C007B681B6803F00403002B05D0594B5B68A3
:101A7C00584A43F4E06353607B681B6803F0080327
:101A8C00002B05D0534B5B68524A43F460535360B0
:101A9C00504B5B6823F0F0027B689B684D49134305
:101AAC004B607B681B6803F00103002B40D07B6804
:101ABC005B68012B07D1474B1B6803F40033002BE9
:101ACC0015D101237FE07B685B68022B07D1414B6A
:101ADC001B6803F00073002B09D1012373E03D4B0D
:101AEC001B6803F00203002B01D101236BE0394B7F
:101AFC005B6823F003027B685B68364913434B60D9
:101B0C00FFF742FAF8600AE0FFF73EFA0246FB687C
:101B1C00D31A41F28832934201D9032353E02D4B5F
:101B2C005B6803F00C027B685B689B009A42EBD10C
:101B3C00274B1B6803F007033A689A4210D2244BD8
:101B4C001B6823F0070222493B6813430B60204BB0
:101B5C001B6803F007033A689A4201D0012332E074
:101B6C007B681B6803F00403002B08D0194B5B68DF
:101B7C0023F4E0627B68DB68164913434B607B6897
:101B8C001B6803F00803002B09D0124B5B6823F48D
:101B9C0060527B681B69DB000E4913434B6000F0FD
:101BAC0021F802460B4B5B681B0903F00F030A4933
:101BBC00CB5C22FA03F3094A1360094B1B681846E5
:101BCC00FFF7A0F9002318461037BD4680BD00BFB3
:101BDC0000200240001002401425000818000020CC
:101BEC001C00002080B487B000AF0023FB600023F2
:101BFC00BB6000237B6100237B6000233B611E4B99
:101C0C005B68FB60FB6803F00C03042B02D0082B11
:101C1C0003D027E0194B3B6127E0FB689B0C03F0DA
:101C2C000F03174AD35C7B60FB6803F48033002BF3
:101C3C0010D0114B5B685B0C03F00103114AD35CB1
:101C4C00BB607B680D4A02FB03F2BB68B2FBF3F38B
:101C5C007B6104E07B680C4A02FB03F37B617B69CC
:101C6C003B6102E0054B3B6100BF3B6918461C37EA
:101C7C00BD4680BC704700BF0010024000127A00C5
:101C8C00242500083425000800093D0080B485B0E7
:101C9C0000AF78600A4B1B680A4AA2FB03235B0A5D
:101CAC007A6802FB03F3FB6000BFFB685A1EFA6004
:101CBC00002BF9D100BF00BF1437BD4680BC704764
:101CCC0018000020D34D621080B582B000AF786050
:101CDC007B68002B01D1012341E07B6893F83D30F8
:101CEC00DBB2002B06D17B68002283F83C2078689D
:101CFC00FFF720F87B68022283F83D207B681A6886
:101D0C007B6804331946104600F06EFA7B6801229A
:101D1C0083F846207B68012283F83E207B680122F1
:101D2C0083F83F207B68012283F840207B680122E6
:101D3C0083F841207B68012283F842207B680122D2
:101D4C0083F843207B68012283F844207B680122BE
:101D5C0083F845207B68012283F83D200023184638
:101D6C000837BD4680BD000080B485B000AF7860F8
:101D7C007B6893F83D30DBB2012B01D0012335E0B9
:101D8C007B68022283F83D207B681B68DA687B68DD
:101D9C001B6842F00102DA607B681B68164A9342AA
:101DAC0009D07B681B68B3F1804F04D07B681B683B
:101DBC00124A934211D17B681B689B6803F007039E
:101DCC00FB60FB68062B10D07B681B681A687B686D
:101DDC001B6842F001021A6007E07B681B681A68F6
:101DEC007B681B6842F001021A6000231846143706
:101DFC00BD4680BC704700BF002C01400004004071
:101E0C0080B582B000AF78607B681B681B6903F0FB
:101E1C000203022B22D17B681B68DB6803F00203F0
:101E2C00022B1BD17B681B686FF002021A617B6866
:101E3C0001221A777B681B689B6903F00303002B54
:101E4C0003D0786800F0B4F905E0786800F0A7F9E1
:101E5C00786800F0B6F97B6800221A777B681B68FB
:101E6C001B6903F00403042B22D17B681B68DB681D
:101E7C0003F00403042B1BD17B681B686FF0040276
:101E8C001A617B6802221A777B681B689B6903F4D2
:101E9C004073002B03D0786800F08AF905E078686D
:101EAC0000F07DF9786800F08CF97B6800221A77D5
:101EBC007B681B681B6903F00803082B22D17B6825
:101ECC001B68DB6803F00803082B1BD17B681B68BD
:101EDC006FF008021A617B6804221A777B681B6812
:101EEC00DB6903F00303002B03D0786800F060F982
:101EFC0005E0786800F053F9786800F062F97B68C7
:101F0C0000221A777B681B681B6903F01003102BE7
:101F1C0022D17B681B68DB6803F01003102B1BD1EC
:101F2C007B681B686FF010021A617B6808221A77B5
:101F3C007B681B68DB6903F44073002B03D0786863
:101F4C0000F036F905E0786800F029F9786800F0BF
:101F5C0038F97B6800221A777B681B681B6903F0D1
:101F6C000103012B0ED17B681B68DB6803F00103B6
:101F7C00012B07D17B681B686FF001021A6178682E
:101F8C00FEF78CFE7B681B681B6903F08003802BBB
:101F9C000ED17B681B68DB6803F08003802B07D1B4
:101FAC007B681B686FF080021A61786800F06BFA2E
:101FBC007B681B681B6903F04003402B0ED17B68C8
:101FCC001B68DB6803F04003402B07D17B681B6860
:101FDC006FF040021A61786800F0FCF87B681B68AF
:101FEC001B6903F02003202B0ED17B681B68DB6878
:101FFC0003F02003202B07D17B681B686FF02002B5
:10200C001A61786800F036FA00BF0837BD4680BD0B
:10201C0080B584B000AF786039600023FB737B68B7
:10202C0093F83C30012B01D10223B4E07B680122F0
:10203C0083F83C207B68022283F83D207B681B6878
:10204C009B68BB60BB6823F07703BB60BB6823F461
:10205C007F43BB607B681B68BA689A603B681B68EF
:10206C00B3F5005F3ED0B3F5005F00F28780B3F5A7
:10207C00805F00F08680B3F5805F7FD8702B1AD01C
:10208C00702B7BD8602B50D0602B77D8502B3CD04A
:10209C00502B73D8402B58D0402B6FD8302B64D09A
:1020AC00302B6BD8202B60D0202B67D8002B5CD02A
:1020BC00102B5AD062E07B6818683B6899683B68C3
:1020CC005A683B68DB6800F05EF97B681B689B68AC
:1020DC00BB60BB6843F07703BB607B681B68BA6866
:1020EC009A604FE07B6818683B6899683B685A684F
:1020FC003B68DB6800F047F97B681B689A687B6873
:10210C001B6842F480429A603CE07B6818683B682C
:10211C0059683B68DB681A4600F0BEF87B681B68A0
:10212C005021184600F015F92CE07B6818683B68C4
:10213C0059683B68DB681A4600F0DCF87B681B6862
:10214C006021184600F005F91CE07B6818683B68B4
:10215C0059683B68DB681A4600F09EF87B681B6880
:10216C004021184600F0F5F80CE07B681A683B68D3
:10217C001B681946104600F0ECF803E00123FB73D2
:10218C0000E000BF7B68012283F83D207B680022C1
:10219C0083F83C20FB7B18461037BD4680BD80B4CD
:1021AC0083B000AF786000BF0C37BD4680BC704771
:1021BC0080B483B000AF786000BF0C37BD4680BCE4
:1021CC00704780B483B000AF786000BF0C37BD4659
:1021DC0080BC704780B483B000AF786000BF0C3710
:1021EC00BD4680BC7047000080B485B000AF7860FD
:1021FC0039607B681B68FB607B68254A934207D07B
:10220C007B68B3F1804F03D07B68224A934208D19C
:10221C00FB6823F07003FB603B685B68FA68134350
:10222C00FB607B681A4A934207D07B68B3F1804FFE
:10223C0003D07B68174A934208D1FB6823F44073A0
:10224C00FB603B68DB68FA681343FB60FB6823F0B8
:10225C0080023B685B691343FB607B68FA681A6019
:10226C003B689A687B68DA623B681A687B689A629A
:10227C007B68074A934203D13B681A697B681A63EF
:10228C007B6801225A6100BF1437BD4680BC704781
:10229C00002C01400004004080B487B000AFF8600F
:1022AC00B9607A60FB681B6A7B61FB681B6A23F070
:1022BC000102FB681A62FB689B693B613B6923F076
:1022CC00F0033B617B681B013A6913433B617B69FB
:1022DC0023F00A037B617A69BB6813437B61FB685B
:1022EC003A699A61FB687A691A6200BF1C37BD466D
:1022FC0080BC704780B487B000AFF860B9607A607A
:10230C00FB681B6A7B61FB681B6A23F01002FB688D
:10231C001A62FB689B693B613B6923F470433B6128
:10232C007B681B033A6913433B617B6923F0A00371
:10233C007B61BB681B017A6913437B61FB683A695B
:10234C009A61FB687A691A6200BF1C37BD4680BC73
:10235C00704780B485B000AF786039607B689B684B
:10236C00FB60FB6823F07003FB603A68FB68134367
:10237C0043F00703FB607B68FA689A6000BF143770
:10238C00BD4680BC704780B487B000AFF860B960C0
:10239C007A603B60FB689B687B617B6923F47F43BD
:1023AC007B613B681A027B681A43BB6813437A69EA
:1023BC0013437B61FB687A699A6000BF1C37BD468A
:1023CC0080BC704780B485B000AF786039607B68A2
:1023DC0093F83C30012B01D1022341E07B680122B0
:1023EC0083F83C207B68022283F83D207B681B68C5
:1023FC005B68FB607B681B689B68BB60FB6823F0B9
:10240C007003FB603B681B68FA681343FB607B68D6
:10241C001B68FA685A607B681B68144A934209D09F
:10242C007B681B68B3F1804F04D07B681B68104A33
:10243C0093420CD1BB6823F08003BB603B685B68A4
:10244C00BA681343BB607B681B68BA689A607B6888
:10245C00012283F83D207B68002283F83C20002376
:10246C0018461437BD4680BC704700BF002C014095
:10247C000004004080B483B000AF786000BF0C371C
:10248C00BD4680BC704780B483B000AF786000BF9D
:10249C000C37BD4680BC704770B500260C4D0D4CFA
:1024AC00641BA410A64209D100F022F800260A4DA4
:1024BC000A4C641BA410A64205D170BD55F8043B10
:1024CC0098470136EEE755F8043B98470136F2E79A
:1024DC003825000838250008382500083C25000858
:1024EC0003460244934200D1704703F8011BF9E7FD
:1024FC00F8B500BFF8BC08BC9E467047F8B500BFE5
:08250C00F8BC08BC9E467047B4
:10251400000000000000000001020304060708098F
:1025240002030405060708090A0B0C0D0E0F101010
:0425340001020000A0
:042538003101000865
:04253C000D01000885
:102540000200000002000000000000000600000081
:1025500001020304050607080024F400100000002F
:042560000100000076
:0400000508000E9948
:00000001FF
